:020000040000FA
:100000000C9421030C9449030C9449030C94490368
:100010000C9449030C9449030C9449030C94490330
:100020000C9449030C9449030C941C0F0C948B0FF3
:100030000C9449030C9449030C9449030C94490310
:100040000C9449030C9449030C9449030C94490300
:100050000C9449030C9449030C9449030C94D20E5C
:100060000C9449030C9449030C9449030C944903E0
:100070000C9449030C9449030C9449030C944903D0
:100080000C9449030C9449030C9449030C944903C0
:100090000C94BD110C9449030C9449030C9449032E
:1000A0000C9449030C9449030C944903000000008C
:1000B0000000006F00000007000700147F147F1489
:1000C0008C92FF92622313086462364956205000D6
:1000D00000070000001C2241000041221C001408FF
:1000E0003E081408083E08080050300000080808C0
:1000F0000808006060000020100804023E514945D5
:100100003E00427F400042615149462141454B310A
:100110001814127F1027454545393C4A494930019A
:10012000710905033649494936064949291E0036F1
:100130003600000056360000081422410014141442
:100140001414004122140802015109063E415D4980
:100150004E7E0909097E7F494949363E4141412287
:100160007F4141413E7F494949417F090909013E9B
:100170004149497A7F0808087F00417F41002040BB
:10018000413F017F081422417F404040407F020CE4
:10019000027F7F0408107F3E4141413E7F090909EB
:1001A000063E4151215E7F09192946464949493198
:1001B00001017F01013F4040403F0F3040300F3F81
:1001C0004030403F6314081463070870080761510A
:1001D00049454300007F4100020408102000417F90
:1001E00000000402010204404040404000000304BB
:1001F0000020545454787F484444383844444420C0
:10020000384444487F3854545418087E0901020C7D
:100210005252523E7F0804047800447D4000204042
:10022000443D00007F10284400417F40007C0418BA
:1002300004787C0804047838444444387C1414144A
:1002400008081414187C7C080404084854545420EA
:10025000043F4440203C4040207C1C2040201C3C6B
:100260004030403C44281028440C5050503C4464DA
:10027000544C44000836414100007F0000414136A3
:10028000080004020408047E1111117E7F494949C7
:10029000337F494949367F01010103E0514F41FF56
:1002A0007F4949494177087F087741494949367F65
:1002B0001008047F7C2112097C7F08142241204110
:1002C0003F017F7F020C027F7F0808087F3E41418B
:1002D000413E7F0101017F7F090909063E414141FD
:1002E0002201017F010147281008071C227F221CE0
:1002F00063140814637F404040FF070808087F7FAD
:10030000407F407F7F407F40FF017F4848307F48EB
:1003100030007F007F484830224149493E7F083EF7
:10032000413E462919097F20545454783C4A4A4991
:10033000317C545428007C04040C00E0544C44FCF0
:1003400038545454186C107C106C44545428007C5D
:100350002010087C78422412787C10284400204425
:100360003C047C7C0810087C7C1010107C384444D1
:1003700044387C0404047C7C141414083844444439
:100380000004047C04040C5050503C3048FE4830BB
:1003900044281028447C40407CC00C1010107C7C09
:1003A000407C407C7C407C40FC047C5050207C5055
:1003B00050207C7C5050200028445454387C103805
:1003C0004438085434147C3855545518080B00022E
:1003D00002020000090400000102020000052400DE
:1003E0001001052401010104240206052406000170
:1003F0000705810310004009040100020A00000003
:1004000007050202400000070583024000000403C4
:10041000090412010002EF0201404F1B0692000185
:1004200001020301537061726B46756E0053706177
:10043000726B46756E2050726F204D6963726F004B
:10044000AED5808D142001A1C8817FDB40A6AF0707
:100450000605040100080A0B0C0D09507265737340
:100460002045534320746F2072657475726E0020AE
:1004700020D09AD0B8D0BBD0BED0B3D180D0B0D02D
:10048000BCD0BC0D0A2020D09DD18CD18ED182D081
:10049000BED0BD0D0A0050726573732045534320D2
:1004A000746F2072657475726E005072657373207C
:1004B00045534320746F2072657475726E00D09A34
:1004C000D0B0D0BBD0B8D0B1D180D0BED0B2D0BA2D
:1004D000D0B020D0B4D0B0D182D187D0B8D0BAD0EB
:1004E000B020D0BDD0B520D182D180D0B5D0B1D18F
:1004F00083D0B5D182D181D18F20D0B220D0B4D0D9
:10050000B0D0BDD0BDD18BD0B920D0BCD0BED0BC76
:10051000D0B5D0BDD1822E002020D09DD0B0D181C9
:10052000D182D180D0BED0B9D0BAD0B80D0A2020A7
:10053000D095D0B4D0B8D0BDD0B8D186D18B20D092
:10054000B8D0B7D0BCD0B5D180D0B5D0BDD0B8D19F
:100550008F0D0A2020D09ED0B1D189D0B0D18F206C
:10056000D0B8D0BDD184D0BED180D0BCD0B0D186DF
:10057000D0B8D18F0D0A2020D09AD0B0D0BBD0B83F
:10058000D0B1D180D0BED0B2D0BAD0B020D0B4D00B
:10059000B0D182D187D0B8D0BAD0B00D0A2020D047
:1005A0009FD0B5D180D0B5D0B7D0B0D0B3D180D1A5
:1005B00083D0B7D0BAD0B00D0A00000000002400EC
:1005C00027002A002D003000000000002500280030
:1005D0002B002E003100000000002300260029001F
:1005E0002C002F0004040404040304050202020288
:1005F00004030202020206060606060604040202BC
:100600000204040408020110408040102040804091
:100610008008020401804020100201108010204058
:1006200040200000000200090F0000030401000C3C
:1006300000000000000000000000000000000000BA
:100640000F1311241FBECFEFDAE0DEBFCDBF12E0E3
:10065000A0E0B1E0E0ECFEE302C005900D92A23B09
:10066000B107D9F728E0A2EBB2E001C01D92A03398
:10067000B207E1F713E0C1E2D3E004C02197FE0125
:100680000E942C1EC032D107C9F70E9473130C942C
:100690005E1F0C940000FC0180915003882311F12F
:1006A0003FB7F89482E08093E9002091F200822F16
:1006B00090E01816190614F481E090E0882339F0D0
:1006C000289844E640934F034091F1004083222351
:1006D00039F02091F200211103C02BE62093E800AD
:1006E0003FBF08958FEF9FEF08952FB7F89483E0F1
:1006F0008093E9009091E800892F807295FF04C0F3
:100700009091F20080E4891B2FBF089580914703E8
:1007100081110DC082E08093430384E08093440301
:10072000109246031092450381E08093470383E4CF
:1007300093E0089581508F3008F047C0E82FF0E033
:10074000EC55FC4F0C942C1EC103C503B303B90335
:10075000BD03E503E503E503C803CE03D203D603D7
:10076000DC03E503E003809180008F7780938000B5
:100770000895809180008F7DF9CF80918000877FE0
:10078000F5CF84B58F7784BD089584B58F7DFBCF79
:10079000809190008F7780939000089580919000D1
:1007A0008F7DF9CF80919000877FF5CF8091C00039
:1007B0008F778093C00008958091C0008F7DF9CF1E
:1007C0008091C200877F8093C2000895CF93DF930A
:1007D000282F30E0F901EE5DF94F8491F901ED5FCA
:1007E000F94FD491F901EC51FA4FC491CC23A1F007
:1007F00081110E949A03EC2FF0E0EE0FFF1FEA52E6
:10080000FA4FA591B491EC91ED2381E090E009F4C9
:1008100080E0DF91CF91089580E090E0FACF1F93C0
:10082000CF93DF93282F30E0F901EE5DF94F8491EB
:10083000F901ED5FF94FD491F901EC51FA4FC491F0
:10084000CC23A9F0162F81110E949A03EC2FF0E01F
:10085000EE0FFF1FE853FA4FA591B4918FB7F894AC
:10086000EC91111108C0D095DE23DC938FBFDF918E
:10087000CF911F910895DE2BF8CFCF93DF9390E0B7
:10088000FC01ED5FF94F24918C519A4FFC0184914A
:100890008823C9F090E0880F991FFC01E654FA4FB5
:1008A000A591B491FC01E853FA4FC591D49161111F
:1008B0000DC09FB7F8948C91209582238C938881EA
:1008C000282328839FBFDF91CF910895623051F490
:1008D0009FB7F8943C91822F809583238C93E88175
:1008E0002E2BEFCF8FB7F894EC912E2B2C938FBF3C
:1008F000EACF3FB7F89480913F0390914003A091D5
:100900004103B091420326B5A89B05C02F3F19F0C3
:100910000196A11DB11D3FBFBA2FA92F982F88277F
:10092000BC01CD01620F711D811D911D42E0660F5A
:10093000771F881F991F4A95D1F708958F929F922C
:10094000AF92BF92CF92DF92EF92FF926B017C0148
:100950000E9479044B015C01C114D104E104F1044B
:10096000B9F00E947904681979098A099B09683EDF
:1009700073408105910580F321E0C21AD108E10896
:10098000F10888EE880E83E0981EA11CB11CE4CF0C
:10099000FF90EF90DF90CF90BF90AF909F908F909F
:1009A00008950895089540911803509119032091D6
:1009B00016033091170342175307B4F49091E800DF
:1009C0009570E1F39091E80092FD19C08093F100D9
:1009D000809118039091190301968F739927892BA1
:1009E00019F48EEF8093E800809118039091190319
:1009F0000196909319038093180381E0089580E095
:100A00000895DF92EF92FF920F931F93CF93DF939E
:100A1000D82E8A01EB017B01E40EF51ECE15DF0511
:100A200059F0D7FE12C0FE0184910E94D304219692
:100A30008111F4CF0FEF1FEFC801DF91CF911F910C
:100A40000F91FF90EF90DF9008958881EECF0F9384
:100A50001F93CF93DF931F92CDB7DEB782E08983D8
:100A600042E450E06CEC73E080E80E9401050E94D3
:100A70008603DC0112960D911C910115110589F078
:100A8000D801ED91FC910280F381E02DBE016F5FF2
:100A90007F4FC801099597FD04C0F80100851185B5
:100AA000ECCF89810F90DF91CF911F910F91089525
:100AB000615030F02091F100FC0120830196F8CFC5
:100AC000289884E680934F030895AF92BF92CF9207
:100AD000DF92EF92FF920F931F93CF93DF936C01FE
:100AE0007B018B01040F151FEB015E01AE18BF08DF
:100AF000C017D10759F06991D601ED91FC91019091
:100B0000F081E02DC6010995892B79F7C501DF91A8
:100B1000CF911F910F91FF90EF90DF90CF90BF90FA
:100B2000AF9008958F929F92AF92BF92CF92DF9233
:100B3000EF92FF920F931F93CF93DF936C017B0192
:100B40008A0180910B01882309F45CC080915003D5
:100B5000882309F457C080911C0380FF05C0809151
:100B6000E00082608093E000E801B12C8AEFA82EBB
:100B700093E0892E2AE3922E209711F4BB20D9F11D
:100B80000E94750381110AC0AA94AA20D9F161E0DC
:100B900070E080E090E00E949E04EECF8C171D066E
:100BA00011F00CF08C2F9FB7F8948092E9002091FF
:100BB000E80025FD02C09FBFDFCF282F30E0C21B19
:100BC000D30BF701815020F041914093F100FACF0F
:100BD000E20EF31EBB2021F09092E800B12CEBCF87
:100BE0008091E80085FDE7CF9092E800BB24B394A4
:100BF000209709F3F3CF5D9884E680931B031016CA
:100C000011063CF081E090E0F6019383828310E0CE
:100C100000E0C801DF91CF911F910F91FF90EF90FD
:100C2000DF90CF90BF90AF909F908F900895CF931B
:100C3000DF931F92CDB7DEB76983DC01ED91FC91A4
:100C40000280F381E02D41E050E0BE016F5F7F4FF5
:100C500009950F90DF91CF91089583E08093E9008B
:100C60008091F200882319F08AE38093E8000895C8
:100C70000E94750390E00895CF93DF931F92CDB744
:100C8000DEB7FC018485958597FD08C02FEF3FEF07
:100C9000358724870F90DF91CF910895CE0101967B
:100CA0000E944B03019719F4898190E0F3CF8FEFF5
:100CB0009FEFF0CF0F931F93CF93DF931F92CDB78A
:100CC000DEB78C01FC018485958597FF0BC0CE01B2
:100CD00001960E944B03019771F4898190E0F8011D
:100CE00095878487F801848595850F90DF91CF9152
:100CF0001F910F9108958FEF9FEFF1CFFC01848535
:100D0000958597FD0BC09FB7F89482E08093E9002A
:100D10008091F2009FBF90E0019608959FB7F894EC
:100D200082E08093E9008091F2009FBF90E00895F7
:100D30002091F302260F3327331F21323105ECF4C3
:100D400020917703FC0190E080E0243069F082E09C
:100D50000895A091F3022191AC014D525D4FA40F73
:100D6000B52FB11D2C930196861798F38091F3024D
:100D7000680F6093F30280E0089581E00895109277
:100D8000770381E0809376031092510361E082E063
:100D90000E940F0461E083E00E940F04E9EBF0E0A1
:100DA00080818E7F808380818D7F808388E48093A3
:100DB000B80085E48093BC000895CF93DF9391E061
:100DC0009093D2028823B9F0C091B800D091BA00B4
:100DD0008091BC008A7B8093BC0060E082E00E942E
:100DE0000F0460E083E00E940F040E94BF06D093CE
:100DF000BA00C093B800DF91CF910895CF92DF92EF
:100E0000EF92FF920F931F93CF93DF93D091A003A4
:100E100081E0D13208F09CC0C0919F030E94790408
:100E20006B017C018091770381116CC082E080931B
:100E3000770381E0809376038FEF809375031092A0
:100E40007403D0937303AFE7B3E0E3E5F3E080E02E
:100E5000D8138DC01092520380915203CC0FC82B2F
:100E6000C093520380915103813009F084C01092E5
:100E700051030E9479046B017C018091520380939D
:100E8000BB008091790390917A03A0917B03B0918C
:100E90007C03892B8A2B8B2BA1F00E947904009173
:100EA000790310917A0320917B0330917C036C19B4
:100EB0007D098E099F09061717072807390708F4C7
:100EC00042C08091BC0083FDD8CF85EC8093BC00EC
:100ED0000E9479046B017C0180917703823009F4D0
:100EE0004CC0809175038F3F09F469C080917503F0
:100EF000803209F466C080917503803309F463C0C1
:100F000084E026C08091790390917A03A0917B03BD
:100F1000B0917C03892B8A2B8B2B09F483CF0E9401
:100F200079040091790310917A0320917B03309129
:100F30007C036C197D098E099F090617170728077E
:100F4000390708F06FCF809178030E94DD0685E0B5
:100F500010927E031092A00310927D03DF91CF9137
:100F60001F910F91FF90EF90DF90CF9008959D918A
:100F700091938F5F6DCF85EEA9CF8091790390918A
:100F80007A03A0917B03B0917C03892B8A2B8B2B56
:100F900009F4A2CF0E9479040091790310917A0399
:100FA00020917B0330917C036C197D098E099F0988
:100FB000061717072807390708F08ECFC4CF80E03F
:100FC000C7CF82E0C5CF83E0C3CF0895E09123036C
:100FD00080912203E81730F4F0E0EE54FD4F808159
:100FE00090E008958FEF9FEF0895909123038091F3
:100FF00022032FEF3FEF981748F4E92FF0E0EE546B
:10100000FD4F208130E09F5F90932303C901089535
:101010008091220390912303891B990B0895CF920D
:10102000DF92EF92FF920F931F93CF93DF937C0198
:10103000CB018A0120917D03222389F0EB016B0112
:10104000C40ED51ECC15DD0569F06991D701ED916F
:10105000FC910190F081E02DC7010995F3CF642F39
:101060000E949806C801DF91CF911F910F91FF90C8
:10107000EF90DF90CF900895CF93DF931F92CDB77D
:10108000DEB7698320917D032223F9F02091A0032C
:10109000203258F021E030E0FC013383228390E0DD
:1010A00080E00F90DF91CF91089580917E03E82F2B
:1010B000F0E0E158FC4F998190838F5F80937E032D
:1010C0008093A00381E090E0ECCF61E0CE01019637
:1010D0000E949806F7CF0895682F81EF93E00C9453
:1010E0003C0880910E0491E090937D0380939F03D0
:1010F00010927E031092A00380E00C946C080E9472
:101100006C0880911F088F5F80931F08803190F0DA
:101110000E94FE0610921F0880910E0491E09093A9
:101120007D0380939F0310927E031092A00380E4BE
:101130000C946C0808950F931F93CF93DF938C0149
:10114000EB010E94710881E20E946C0880E00E941D
:101150006C088091110490E0081719070CF4C8017D
:101160000E946C0882E20E946C0880E00E946C0879
:1011700080910F0490E0C817D9070CF4CE010E94AB
:101180006C080E94FE0610921F08DF91CF911F91FC
:101190000F910895CF93DF9360910F0470E08091D9
:1011A000110490E00E949B0880910E0491E09093BE
:1011B0007D0380939F0310927E031092A00380E42E
:1011C0000E946C08C4E1D4E089910E947F0888E005
:1011D000C431D807C9F70E94FE0610921F08DF919C
:1011E000CF9108950F931F930130110559F10230EB
:1011F000110509F44AC0012B11F5FC01E15FFB4F19
:101200000190F081E02D2E0F3F2F311DB3E0220F12
:10121000331FBA95E1F7FC01EF5EFB4F0190F081BF
:10122000E02D13E0F595E7951A95E1F7E20FF31F2E
:10123000E40FF11DE80FF91F8285682B62871F916B
:101240000F910895FC01E15FFB4F0190F081E02DCB
:101250002E0F3F2F311DE3E0220F331FEA95E1F7F8
:10126000FC01EF5EFB4F0190F081E02DA3E0F595CE
:10127000E795AA95E1F7E20FF31FE40FF11DE80FE0
:10128000F91F609582856823D9CFFC01E15FFB4F90
:101290000190F081E02D2E0F3F2F311D53E0220FE2
:1012A000331F5A95E1F7FC01EF5EFB4F0190F0818F
:1012B000E02D73E0F595E7957A95E1F7820F931F9E
:1012C000E80FF91FE40FF11DB9CF0F931F93CF93D0
:1012D000DF932091190830911A082F5F3F4F309308
:1012E0001A082093190890911104921713066CF0B4
:1012F000682F80911D0881110DC010E000E020E0F2
:1013000040E08AE094E00E94F208DF91CF911F91C3
:101310000F910895C62FD0E0BE0101C0660F8A95D7
:10132000EAF710E000E020E040E08AE094E00E946C
:10133000F20820911D0888E090E0821B9109BE010F
:1013400002C0759567958A95E2F720E041E0D9CF14
:101350002F923F924F925F926F927F928F929F92C5
:10136000AF92BF92CF92DF92EF92FF920F931F93B3
:10137000CF93DF93CDB7DEB767970FB6F894DEBF94
:101380000FBECDBF9F8B8E8BF62EFC01E25FFB4F15
:10139000208130E03396845F9B4F6C014DE06413F5
:1013A0003DC08E899F89815F9B4FDC011D921C92FD
:1013B00081E0F12C4E895F89455F5B4FDA016C91CA
:1013C0006623D1F14E895F89435F5B4FDA019C91BF
:1013D0000E891F89015F1B4FD8014D915C91B6E0CA
:1013E0009B9F400D511D1124AE89BF8917969C917A
:1013F0009417150609F004F580819181D8011D929A
:101400001C92820F931F918380834E895F894D5E6A
:101410005B4F80818770DA018C9310C0BAE080E066
:101420006B13C8CF80819181820F931F918380833A
:1014300081E0D6018C93BDCF8111E7CF808191816E
:10144000280F391FEE89FF89868190E00196821767
:1014500093070CF4F12CD6018C91882359F1662363
:1014600049F1B0E2FB1226C0EE89FF89E15FFB4F34
:1014700080819181892B09F048C0F601108281E0BA
:1014800090E067960FB6F894DEBF0FBECDBFDF9138
:10149000CF911F910F91FF90EF90DF90CF90BF9071
:1014A000AF909F908F907F906F905F904F903F9004
:1014B0002F900895F7FE50C0EE89FF89EC5EFB4F38
:1014C0002FEB2F15C0F08081813D39F431E9F31203
:1014D00041C0F082E0ECFE2E18C0803D39F441E8B6
:1014E000F41238C0F082F5E9FF2E0FC0823E29F4D5
:1014F00050E8F5122FC0F082C2CF803859F564E968
:10150000F61228C0F082ADE2FA2E8E899F89815FA3
:101510009B4F9A838983DC012D913C91EE89FF8951
:10152000E35FFB4FFB87EA878081A90166E0869F26
:10153000400D511D1124CA0157FD07C0AE89BF8956
:1015400017964C91421713065CF4E981FA81918356
:10155000808395CFF082D9CFFF2009F490CFD5CFEB
:10156000F0EEFF0DF9878F2F90E0AC01415051094B
:1015700025E0249FB001259F700D11247F876E8781
:1015800060557109798B688B8F96289FD001299FB0
:10159000B00D1124BD87AC87AB5EB109BB8BAA8BA4
:1015A000D12CC12CEA85FB85FC83EB832E893F89F6
:1015B0002D5E3B4F3E832D834E895F894A5E5B4F94
:1015C00058874F8355E060E0C516B9F06985EA8910
:1015D000FB89603668F080E88F0DEC85FD858031F1
:1015E00038F07985E889F989703A10F0EE85FF8541
:1015F000E455FF4FEC0DFD1D6491EE89FF89E65F18
:10160000FB4F808181116095AB81BC819C919130B1
:1016100009F053C0EE89FF89E15FFB4F8081918122
:1016200097FD35C0EE89FF892781281719067CF1BF
:10163000AD81BE818C91EF81F885008110E020E0C2
:1016400040E0882301F1A62EB12CB50101C0660F40
:101650008A95EAF720E040E08E899F890E94F2088F
:10166000AF81B8850C9110E0ED81FE81808128E08A
:1016700030E0281B3109B50102C0759567952A95A0
:10168000E2F720E041E08E899F890E94F208EA8516
:10169000FB858081A981BA812D913C911197820FA0
:1016A000932F911D8D939C93BFEFCB1ADB0AE6E03D
:1016B000CE16D10409F086CFE2CE30E020E080E003
:1016C000812C912C5401E62FF0E0AF01022E02C0D4
:1016D000559547950A94E2F741705527692F680F91
:1016E0008617F1F0412C512C32014394082E04C08E
:1016F000440C551C661C771C0A94D2F74115510501
:1017000031F084289528A628B7288F5FE9CF409428
:1017100050946094709484209520A620B720F5CF33
:101720002F5F3F4F2830310581F6312C4E895F897C
:10173000415F5B4F5D8B4C8BAC89BD898D919C91DA
:10174000EB81FC812081321608F0A1CF830D911D21
:1017500097FD47C0AE89BF8917962C9128171906A7
:101760000CF43FC0212CE12CED81FE812081AB8166
:10177000BC818C912816B0F5B8E02B9EC0011124D5
:101780002401350104C076946794579447948A9550
:10179000D2F7EF81F885008110E0211109C0232DD7
:1017A000422D642D8E899F890E94F2082394DCCFFC
:1017B0006E2D70E088E090E0821B910902C0759563
:1017C00067958A95E2F7842D01C0880F2A95EAF77C
:1017D000682B232D422D8E899F890E94F208E42CCC
:1017E000E5CFE12CAD81BE818C918823B9F0EF81EA
:1017F000F885008110E06E2D70E028E030E0281BB5
:10180000310902C0759567952A95E2F7232DAB81C2
:10181000BC814C918E899F890E94F20833948CCFB1
:101820000F931F93CF93DF938C01D0E0C0E0F801BA
:10183000EC0FFD1F6491662341F08AE094E00E9462
:10184000A809892B11F02196F2CFCE01DF91CF911B
:101850001F910F910895089590E080E00895FF9200
:101860000F931F93CF93DF93F82E062FC7E0D0E09E
:1018700010E061E0802F0E940F048F2D0E94E6038C
:101880000C2E01C0880F0A94EAF7182B60E0802F15
:101890000E940F04219768F7812FDF91CF911F914C
:1018A0000F91FF900895EF92FF920F931F93CF93A4
:1018B000DF93809100040E94E603892B31F060E001
:1018C00070E0CB010E949E04F4CFDFB7F8946091E2
:1018D000FF03809100040E942F0C082F6091FF03EA
:1018E000809100040E942F0CC82F6091FF0380910B
:1018F00000040E942F0C182FF12CE12C8091010480
:101900008E151F0479F070F061E08091FF030E9452
:101910000F0460E08091FF030E940F048FEFE81A2C
:10192000F80AECCFDFBF6C2F70E090E080E0982FDA
:10193000872F762F6627802B612B000F000B10E07E
:1019400030E020E0302F222711270027602B712B59
:10195000822B932BDF91CF911F910F91FF90EF90EE
:101960000895CF92DF92EF92FF92CF93CAE0C12CFD
:10197000D12C76010E94530CC60ED71EE81EF91E0C
:1019800060E070E0CB010E949E04C15099F7C7014E
:10199000B6012AE030E040E050E00E947E1BCA0120
:1019A000B9010E94F51C0E94BD1C60930204709353
:1019B00003048093040490930504CF91FF90EF906B
:1019C000DF90CF900895CF92DF92EF92FF920F9326
:1019D0001F93CF93C5E0C12CD12C76010E94530CEC
:1019E000C60ED71EE81EF91E60E070E0CB010E9413
:1019F0009E04C15099F7C701B60125E030E040E0F0
:101A000050E00E947E1B8091020490910304A091FB
:101A10000404B091050479018A01E81AF90A0A0B55
:101A20001B0BC801B7010E94F51C209106043091E0
:101A3000070440910804509109040E944B1CCF9167
:101A40001F910F91FF90EF90DF90CF9008954091FC
:101A500012045091130470E060E084E194E00E946D
:101A6000571F80911B08877080931D080895FB0104
:101A700001900020E9F73197AF01461B570BDC01BD
:101A8000ED91FC910280F381E02D09948F929F9259
:101A9000AF92BF92EF92FF920F931F93CF93DF937A
:101AA000CDB7DEB7A1970FB6F894DEBF0FBECDBF9E
:101AB0007C01FA01CB0119A2223008F42AE08E0140
:101AC0000F5D1F4F822E912CB12CA12CBF01A501BF
:101AD00094010E94A81BF901CA016A300CF5605DEF
:101AE000D8016E938D01232B242B252B79F790E0C1
:101AF00080E0109721F0BD01C7010E94370DA1962B
:101B00000FB6F894DEBF0FBECDBFDF91CF911F910E
:101B10000F91FF90EF90BF90AF909F908F9008959E
:101B2000695CDECFBC018AE094E00C94370DCF9362
:101B3000DF93BC018AE094E00E94370DEC0161E57F
:101B400071E08AE094E00E94370D8C0F9D1FDF91B9
:101B5000CF9108952F923F924F925F926F927F9212
:101B60008F929F92AF92BF92CF92DF92EF92FF92AD
:101B70001F93CF93DF93EC016A017B01722EAB01BF
:101B80009601CB01B6010E94171E64E571E0811138
:101B900026C046015701E894B7F82FEF3FEF4FE713
:101BA0005FE7C501B4010E94171E81110CC02FEF21
:101BB0003FEF4FE75FE7C501B4010E94461C68E5AF
:101BC00071E0181664F02FEF3FEF4FE75FE4C701B5
:101BD000B6010E94A51D1816B4F46CE571E0CE01A3
:101BE000DF91CF911F91FF90EF90DF90CF90BF904A
:101BF000AF909F908F907F906F905F904F903F90AD
:101C00002F900C94370D2FEF3FEF4FE75FECC7019C
:101C1000B6010E94461C87FDE0CF20E030E0A9011C
:101C2000C701B6010E94461C312C212C87FF0DC034
:101C3000E881F9810190F081E02D6DE2CE010995F6
:101C40001C01F7FAF094F7F8F09410E060E070E00F
:101C500080E09FE3711641F020E030E040E251E483
:101C60000E944B1C1F5FF6CFA70196010E94DA1B52
:101C70002B013C010E94C41C4B015C012AE0BC0109
:101C8000A401CE010E94460D7C01E20CF31C11233D
:101C9000E1F1C501B4010E94F31C9B01AC01C30139
:101CA000B2010E94D91B4B015C01E881F9810190CE
:101CB000F081E02D6EE2CE010995E80EF91E11507B
:101CC00020F120E030E040E251E4C501B4010E947F
:101CD000AA1D2B013C010E94C41C4B01B12CA12C5C
:101CE0002AE0B501A401CE010E94460DE80EF91EBE
:101CF000C501B4010E94F31C9B01AC01C301B201F8
:101D00000E94D91B4B015C01DACFC701DF91CF9153
:101D10001F91FF90EF90DF90CF90BF90AF909F907A
:101D20008F907F906F905F904F903F902F9008958D
:101D300085ED8093BC008091790390917A03A09106
:101D40007B03B0917C030796A11DB11D23E0B695DE
:101D5000A795979587952A95D1F72091BC0024FDEA
:101D600003C01092770308954091790350917A034C
:101D700060917B0370917C03452B462B472B69F3C5
:101D80000097A105B10541F02AE22A95F1F700C0BC
:101D90000197A109B109E1CF809178030C94DD0688
:101DA0000C94CE1E1F920F920FB60F9211242F93F8
:101DB0003F938F939F93AF93BF9380913B039091F9
:101DC0003C03A0913D03B0913E0330913A0323E0E0
:101DD000230F2D3758F50196A11DB11D20933A030D
:101DE00080933B0390933C03A0933D03B0933E0349
:101DF00080913F0390914003A0914103B091420331
:101E00000196A11DB11D80933F0390934003A093C1
:101E10004103B0934203BF91AF919F918F913F9146
:101E20002F910F900FBE0F901F90189526E8230F4B
:101E30000296A11DB11DD2CF1F920F920FB60F9225
:101E400011248F939F938091E1009091E100937F03
:101E50009093E10083FF0FC01092E90091E090930E
:101E6000EB001092EC0092E39093ED00109250037F
:101E700098E09093F00082FF22C093E09093E900F5
:101E80009091F200992319F09AE39093E8009091D1
:101E90001B03992341F090911B03915090931B03D6
:101EA000911101C05D9A90914F03992341F0909157
:101EB0004F03915090934F03911101C0289A84FFD2
:101EC00018C08091E2008E7E81608093E200809154
:101ED000E1008F7E8093E10080911C038E7E806103
:101EE00080931C039F918F910F900FBE0F901F90B6
:101EF000189580FFF7CF8091E2008E7E80618093FD
:101F0000E2008091E1008E7E8093E10080911C03CD
:101F10008E7E8160E5CF1F920F920FB60F92112433
:101F2000CF92DF92EF92FF920F931F932F933F93E5
:101F30004F935F936F937F938F939F93AF93BF93D1
:101F4000EF93FF93CF93DF93CDB7DEB76C97DEBFF0
:101F5000CDBF1092E9008091E80083FF25C068E0C2
:101F6000CE0145960E94580582EF8093E8008D8946
:101F700087FF39C09091E80090FFFCCF982F9076B2
:101F800009F034C19E894F89588D2F89F88C9111A1
:101F900031C0803861F580911D038093F10010926B
:101FA000F1008EEF8093E8006C960FB6F894DEBFD8
:101FB0000FBECDBFDF91CF91FF91EF91BF91AF9158
:101FC0009F918F917F916F915F914F913F912F9151
:101FD0001F910F91FF90EF90DF90CF900F900FBE69
:101FE0000F901F9018959EEF9093E800C7CF109226
:101FF000F100D5CF913059F48111D3CF4130510543
:1020000081F680911D038D7F80931D03CACF93308D
:1020100049F48111C6CF4130510519F680911D0355
:102020008260F2CF953041F48091E80080FFFCCFD0
:1020300020682093E300B5CF963009F0A9C00B8D3E
:102040001C8D22E01092E9001092190310921803DF
:10205000F2122EC010921703109216030E94270549
:102060001F8299E09983FA8291E09E8390EA988793
:102070009AEF99872091180330911903275F3F4FFA
:102080003C832B838D831092E900109219031092E8
:102090001803109317030093160349E050E0BE01A4
:1020A0006F5F7F4F80E00E9401050E94270579CF76
:1020B00010931703009316030E948603DC01129607
:1020C0000D911C910115110509F451C1D801ED9133
:1020D000FC910480F581E02DBE016B5E7F4FC8014D
:1020E0000995009709F03EC1F80100851185EACFF6
:1020F000F3E0FF120EC08F89882309F440C08230BC
:1021000061F440E862E18DE294E00E94DC1281110A
:1021100048CF81E28093EB0047CF813029F440E83B
:1021200068E084E294E0F1CF833099F70E9486035F
:10213000DC011296ED90FC908E010F5F1F4F68013D
:10214000E114F10479F0D701ED91FC910680F7815B
:10215000E02DB801C7010995080F111DF701E084B2
:10216000F184EECFD8011C92F60101900020E9F72E
:102170003197BF016C197D0940E0C601C6CF6EE002
:1021800074E0FB01449150E080E80E94010509CF12
:10219000973009F4BECF983021F481E08093F100AC
:1021A00000CF993009F0FDCE837009F0B2CFE3E1A2
:1021B000F1E081E031E096E32191222371F08093F8
:1021C000E9003093EB00DF0111972C912093EC0094
:1021D0009093ED008F5F873079F78EE78093EA0068
:1021E0001092EA008F8980935003DBCE8B8D9C8DFB
:1021F0001092E9001092190310921803909317039C
:1022000080931603898D811192C08E899D89913AA0
:1022100049F4813209F07DCF47E050E064E071E09D
:1022200080E0B3CF913209F074CF833269F48F89A3
:10223000988DB0E0A0E08093000190930101A093FD
:102240000201B0930301ADCE803269F48091E800C1
:1022500082FFFCCF67E084E091E00E9458058BEF9D
:102260008093E8009ECE823209F09BCE8F898093C6
:102270000B01EEEFFFE7859194918B3F9C4D51F15F
:10228000E0E0F8E08091040190910501A091060141
:10229000B0910701803B9440A105B105F1F4809114
:1022A0000B0180FD1AC0EE3F8AE0F80789F587E749
:1022B00097E7918380838091600080931A0388E17F
:1022C0009BE00FB6F894A895809360000FBE9093A2
:1022D000600067CEEEEFFAE0D5CF8081918187373D
:1022E000974709F05ECEA895809160008861809341
:1022F000600080911A0380936000EE3F2AE0F207AD
:1023000089F08091FE0A9091FF0A9183808349CEE3
:10231000808191818737980751F29093FF0A8093CB
:10232000FE0AC5CF1092FF0A1092FE0A3ACE0E9412
:102330008603DC0112960D911C910115110509F41B
:10234000E8CED801ED91FC910190F081E02DBE0125
:102350006B5E7F4FC8010995811123CEF80100857E
:102360001185EBCF181619060CF41BCED2CEF1E076
:10237000FF12BECE62E174E004CF1F920F920FB63F
:102380000F9211242F933F934F935F936F937F93FB
:102390008F939F93AF93BF93EF93FF938091B90077
:1023A000887F803609F44AC0F0F5883209F4A7C066
:1023B00018F5803109F49BC0B8F4882309F4F9C0FA
:1023C000883009F494C0FF91EF91BF91AF919F9134
:1023D0008F917F916F915F914F913F912F910F90CE
:1023E0000FBE0F901F901895883109F488C0803275
:1023F00051F78093750314C0803409F49DC040F4F4
:102400008033B9F38833F9F68093750385ECB0C057
:10241000803509F485C0883509F496C0883499F66A
:102420000E94980ED0CF883909F48CC038F58837CF
:1024300029F050F4883611F0803729F683E0809334
:1024400077031092150357C0883809F47BC0803990
:1024500019F0803809F0B7CF80911503803208F069
:1024600071C0E091150381E08E0F80931503809178
:10247000BB00F0E0EB50FD4F80833DC0803B39F066
:10248000E0F4803A09F479C0883A09F09CCF84E0FE
:10249000809377031092F4021092F302E0912003EC
:1024A000F091210309958091F30281110FC081E021
:1024B0008093F3021092D30209C0803C09F4A6CFA6
:1024C000883C09F4A3CF883B09F07DCFE091F4026A
:1024D00081E08E0F8093F402F0E0ED52FD4F808199
:1024E0008093BB009091F4028091F30229C0809107
:1024F00052038093BB0085EC8093BC0064CF909125
:10250000740380917303981758F5E091740381E088
:102510008E0F80937403F0E0ED5AFC4F8081E9CF79
:10252000E091740381E08E0F809374038091BB006F
:10253000F0E0ED5AFC4F8083909174038091730317
:102540009817C8F285E8D8CFE091740381E08E0F28
:10255000809374038091BB00F0E0ED5AFC4F8083C0
:102560008091760381115CCF81E08093510384EAEE
:102570008093BC001092770326CF85EC8093BC003B
:102580001092770380911503803230F4E0911503A7
:10259000F0E0EB50FD4F10826091150370E0E09188
:1025A0001E03F0911F0385EF92E009951092150329
:1025B0000ACF1092750334CFEF92FF920F931F93BF
:1025C000CF93DF93F82E192FE62E042F81E0860F8C
:1025D000880F0E94D30483E00E94D304CF2DD12F13
:1025E000EC0EFD2EF11CCE15DF05B9F007FF13C070
:1025F000FE0184910E94D304182F80E00E94D3042E
:10260000812321968111EFCFDF91CF911F910F91FF
:10261000FF90EF9008958881EDCF81E0F5CFE1EA5A
:10262000F3E01382128288EE93E0A0E0B0E08483AE
:102630009583A683B7832DE131E0318320832FEF8B
:102640003FEF35872487E1EFF3E013821282848322
:102650009583A683B7838FE291E091838083EAE03C
:10266000F4E01382128289E491E0918380838CE309
:10267000848387E085838FE386838FE7878380E089
:1026800094E0918780871092140810921508109298
:10269000160881E08093170888E08093180810924C
:1026A0001A081092190810921C0810921B08109218
:1026B0001D0810921F0882E08093200810922B08BA
:1026C000EDEFF3E081E491E091838083158216823F
:1026D0001782108680E090E0A0E8BFE381879287B0
:1026E000A387B4870895789484B5826084BD84B547
:1026F000816084BD85B5826085BD85B5816085BDFD
:1027000080916E00816080936E00109281008091B4
:10271000810082608093810080918100816080933C
:102720008100809180008160809380008091910081
:1027300082608093910080919100816080939100EC
:10274000809190008160809390008091C1008460AE
:102750008093C1008091C10082608093C10080910C
:10276000C10081608093C1008091C300816080932B
:10277000C3008091C00082608093C0008091C2003D
:1027800081608093C20080917A00846080937A0097
:1027900080917A00826080937A0080917A008160D3
:1027A00080937A0080917A00806880937A001092FA
:1027B000500310921D0310921C038091D70081607A
:1027C0008093D70080EA8093D80089B5806189BD65
:1027D00089B5826089BD09B400FEFDCF61E070E07B
:1027E00080E090E00E949E048091D8008F7C806100
:1027F0008093D8008091E000807F8093E0008091FA
:10280000E1008E7E8093E1008DE08093E200559A96
:10281000209A62E084E00E943D0462E085E00E942C
:102820003D0462E086E00E943D0462E087E00E9491
:102830003D048FEF9FEF9093AE038093AD038DEC3B
:102840009CECACE8BFE38093240390932503A09312
:102850002603B093270310922303109222031092B1
:102860007E031092A0030E94BF0681ED94E0909336
:1028700021038093200382ED94E090931F038093C3
:102880001E030E947108C0E4D4E00FE414E0FE01CE
:1028900084910E947F0821960C171D07C1F70E94A2
:1028A000FE0610921F080E9471088AED0E947F08A0
:1028B00082E10E947F0888EA0E947F088FE30E94DD
:1028C0007F080E94FE0610921F0810921A081092AC
:1028D000190810921C0810921B0810921D08609194
:1028E0000F0470E08091110490E00E949B080E9408
:1028F000270D82E08093170880E180931808C5E0D7
:10290000D0E0D0931A08C093190888E090E0909323
:102910001C0880931B0810921D0880E691E00E941D
:10292000920DD0931A08C093190808E110E0109393
:102930001C0800931B0810921D0822E040E050E0A4
:1029400060E670E48AE094E00E94AA0D84E190E0E1
:1029500090931A088093190888E390E090931C08DC
:1029600080931B0810921D08C1E0C0931708D8E09F
:10297000D09318088BE691E00E94920D0E94CA083D
:1029800068EE73E080E090E00E949E040E94270DB4
:1029900010921D08C0931708D093180889E190E0A1
:1029A00090931A088093190810931C0800931B0831
:1029B0008BE791E00E94970D0E94CA080E94270DA4
:1029C0008FE08093FF038EE08093000461E08FE04E
:1029D0000E943D0460E0809100040E943D04C09389
:1029E000010480E090E0A0E3B3E4809306049093B8
:1029F0000704A0930804B09309040E94B10C0E943C
:102A0000270D10921A081092190810921C081092A3
:102A10001B0810921D08E0E12E2E312CF7E3CF2E7B
:102A2000D12CC8E3D0E002E310E00E94270D2FB7BD
:102A3000F89480913B0390913C03A0913D03B091A9
:102A40003E032FBF40913203509133036091340312
:102A500070913503841B950BA60BB70B89389341F6
:102A6000A105B10508F44BC1E0E5F4E08491909133
:102A70007B00282F220F220F20729F7D922B909394
:102A80007B008770806480937C0080917A008064F2
:102A900080937A0080917A0086FDFCCF8090780048
:102AA00090907900092C000CAA08BB08FEE5F09371
:102AB0007C0062E070E080E090E00E949E048091E3
:102AC0007A00806480937A0080917A0086FDFCCF42
:102AD000E0907800F090790020E030EC4FE754E48B
:102AE0006091240370912503809126039091270320
:102AF0000E94AA1D20E030E04AE754E40E94AA1D8B
:102B00002B013C01B701072E000C880B990B0E948A
:102B1000F51C9B01AC01C301B2010E944B1C0E9439
:102B2000BD1C9B01AC01C501B4010E941C1E2FEF0E
:102B300033E040E050E00E947E1BB901330F880B68
:102B4000990B0E94F51C25E33EE54AEB5DE30E94EC
:102B50004B1C4B015C0180922E0390922F03A0929C
:102B60003003B092310320E030E046E155E40E94AA
:102B7000461C87FF74C00E94270D10921D0882E03A
:102B80008093170880E18093180889E190E0909382
:102B90001A088093190880E190E090931C088093B4
:102BA0001B0886E991E00E94920D8AE090E09093E4
:102BB0001A088093190888E290E090931C0880938B
:102BC0001B0810921D0885EA91E00E94920D0E9458
:102BD000CA0860E08091FF030E940F0461E08091C9
:102BE000FF030E940F042FB7F89480913B0390914C
:102BF0003C03A0913D03B0913E032FBF40913603AB
:102C0000509137036091380370913903841B950B01
:102C1000A60BB70B853F9140A105B10528F060E0F8
:102C20008091FF030E940F042FB7F89480913B031B
:102C300090913C03A0913D03B0913E032FBF809340
:102C4000360390933703A0933803B093390380E0A1
:102C500090E0892B09F4DFCE0E940000DCCE20E05A
:102C600030E04AE755E4C501B4010E94A51D1816DD
:102C700034F4812C912C7AE7A72E75E4B72EC50188
:102C8000B4010E94BD1C9B01AC0120563940410992
:102C90005109A4E6B0E00E949D1B20E436E040E02C
:102CA00050E00E947E1BCA01B9010E94F51CAB01D5
:102CB000BC0140932E0350932F0360933003709315
:102CC000310322E081EA93E00E94AA0D61E571E000
:102CD00081EA93E00E94370D2FB7F89480913B036F
:102CE00090913C03A0913D03B0913E032FBF809390
:102CF000320390933303A0933403B09335031092BF
:102D00001C0810921B0810921D08EEE6F0E0F093EC
:102D10001A08E093190860912E0370912F03809197
:102D20003003909131030E94C41CF62E8CE30E9464
:102D300065098CE30E9465098FEF0E94650984E6AE
:102D400090E08F1991097C0197FF03C097E0E90E8D
:102D5000F11C63E0F594E7946A95E1F7B12CA12C9E
:102D600081E8AE14BF040CF08FEF0E946509EFEF0D
:102D7000AE1ABE0AFCE0AF16B10491F78FEF0E94C5
:102D8000650910921A081092190810921C081092E6
:102D90001B0810921D088FEF93E00E94681B8111A1
:102DA000FFC082E08093170880E18093180884E6D2
:102DB00090E090931A0880931908E0E3F0E0F09314
:102DC0001C08E0931B0888EB91E00E94920D84E0C0
:102DD0008093170880E28093180884E190E0909334
:102DE0001A088093190830921C0820921B08109230
:102DF0001D080E94E30C20E030E04AE754E40E9402
:102E00004B1C4B015C0180922A0390922B03A092F1
:102E10002C03B0922D0320E030E0A9010E94A51DF3
:102E200018160CF0F6C122E0B501A4018AE094E086
:102E30000E94AA0D80902A0390902B03A0902C034F
:102E4000B0902D032AE037ED43E25CEBC501B401FD
:102E50000E94A51D1816F4F42AE037ED43E25CE366
:102E6000C501B4010E94461C87FF14C081E0809315
:102E7000170888E080931808D0921A08C0921908A1
:102E8000D0931C08C0931B0810921D088BEB91E097
:102E90000E94920D80902A0390902B03A0902C0307
:102EA000B0902D032DEC3CEC4CEC5DE3C501B4017E
:102EB0000E94A51D87FD1EC023E333E343EB5FE3C0
:102EC000C501B4010E94461C1816A4F081E080934D
:102ED000170888E08093180810931A0800931908BF
:102EE000D0931C08C0931B0810921D088FEB91E033
:102EF0000E94920D80902A0390902B03A0902C03A7
:102F0000B0902D0323E333E343EB5FE3C501B4014A
:102F10000E94A51D87FD1EC02DEC3CEC4CEC5FE330
:102F2000C501B4010E94461C1816A4F081E08093EC
:102F3000170888E08093180810931A08009319085E
:102F4000D0931C08C0931B0810921D0883EC91E0DD
:102F50000E94920D2DEC3CEC4CEC5FE360912A0357
:102F600070912B0380912C0390912D030E94A51D3D
:102F700087FD14C081E08093170888E080931808CB
:102F800010931A0800931908D0931C08C0931B08CB
:102F900010921D0888EC91E00E94920D0E94CA08D0
:102FA0008FEF93E00E94681BF82E91E0891306C111
:102FB00082E08093170880E180931808E4E6F0E04F
:102FC000F0931A08E093190880E390E090931C08AE
:102FD00080931B0810921D0882ED91E00E94920DD3
:102FE00084E08093170880E280931808E8E2F0E01C
:102FF000F0931A08E093190830921C0820921B08DD
:1030000010921D080E94E30C20E030E04AE754E4EF
:103010000E944B1C2CE038EE4CE151E40E94AA1DAA
:103020004B015C0180922A0390922B03A0922C0307
:10303000B0922D0320E030E0A9010E94A51D1816D2
:103040000CF0FEC020E0B501A4018AE094E00E94EB
:10305000AA0D80902A0390902B03A0902C03B0908F
:103060002D032AE037ED43E25CEBC501B4010E9479
:10307000A51D1816ECF42AE037ED43E25CE3C50128
:10308000B4010E94461C87FF13C0F092170888E025
:1030900080931808D0921A08C0921908D0931C087F
:1030A000C0931B0810921D088BEB91E00E94920DBB
:1030B00080902A0390902B03A0902C03B0902D03B6
:1030C0002DEC3CEC4CEC5DE3C501B4010E94A51D68
:1030D00087FD1EC020E030E040E651E4C501B401A8
:1030E0000E94461C1816A4F081E08093170888E01F
:1030F0008093180810931A0800931908D0931C089D
:10310000C0931B0810921D088FEB91E00E94920D56
:1031100080902A0390902B03A0902C03B0902D0355
:1031200020E030E040E651E4C501B4010E94A51D55
:1031300087FD1EC020E030E040E851E4C501B40145
:103140000E94461C1816A4F081E08093170888E0BE
:103150008093180810931A0800931908D0931C083C
:10316000C0931B0810921D0883EC91E00E94920D01
:1031700020E030E040E851E460912A0370912B0395
:1031800080912C0390912D030E94A51D87FD14C0F2
:1031900081E08093170888E08093180810931A083C
:1031A00000931908D0931C08C0931B0810921D08A7
:1031B00088EC91E00E94920D0E94CA0887E00E946C
:1031C000E603892B09F052C00E94B10C0E94270D22
:1031D00010921D0884E08093170880E280931808FD
:1031E0008AE090E090931A088093190880E190E0BB
:1031F00090931C0880931B0884ED91E00E94920D2F
:103200000E94CA0864EF71E080E090E00E949E0492
:10321000E0CC8DEC91E00E94970D81E0809317083F
:1032200088E080931808D0921A08C0921908D093A9
:103230001C08C0931B0810921D088BEB91E0ACCECC
:1032400080ED91E00E94970DF092170888E080933E
:103250001808D0921A08C0921908D0931C08C0937D
:103260001B0810921D088BEB91E0A4CF86E00E9412
:10327000E603892B09F059C020E030E0A9016091F4
:103280002A0370912B0380912C0390912D030E94AF
:10329000A51D18160CF09DCC94E0892E20E2922EEC
:1032A00034E1C32ED12C40E1E42EF12CAA24A394C6
:1032B00058E0B52E0AE010E0C8E3D0E0809217088D
:1032C00090921808D0921A08C0921908F0921C081F
:1032D000E0921B0810921D0840912A0350912B0385
:1032E00060912C0370912D0322E08AE094E00E940B
:1032F000AA0DA0921708B092180810931A0800930C
:103300001908D0931C08C0931B0810921D088AED61
:1033100091E00E94920D0E94CA0885E00E94E60397
:10332000892B61F60E94270D54CC85E00E94E603AC
:10333000892B09F077C00E94270D10921A0810926D
:10334000190810921C0810921B0810921D0881E0A9
:103350008093170888E080931808EE24E39488E0AF
:10336000782E86E00E94E603892B59F48091290388
:1033700018160CF05EC086300CF05DC08150809352
:10338000290387E00E94E603892B59F480912903E1
:103390008F3F0CF452C084300CF051C08F5F80938B
:1033A000290384E00E94E603009781F4F09029034A
:1033B000F2E0FF1609F4F2C0FF150CF442C0FF2042
:1033C00009F449C021E0F21609F46BC010921A0802
:1033D0001092190810921C0810921B0810921D08D8
:1033E00088E195E00E94100C80912903F8E08F9FFE
:1033F000C001112410921A081092190890931C0809
:1034000080931B0810921D0889E392E00E94920DA0
:103410000E94CA0885E00E94E603892B09F0A1CF2B
:103420000E94270D84E00E94E603892B09F0FDCA63
:1034300079CF80E0A4CF84E0A2CF80E0B0CF84E059
:10344000AECFE3E0FE1609F419C1F4E0FF12BECFDF
:10345000FC010995BBCF0E94270D10921A0810920B
:10346000190810921C0810921B0810921D08E09277
:1034700015088FED91E00E94970D1092150881E8D4
:1034800092E00E94970D8BE594E00E94100C0E9440
:10349000CA0885E00E94E603892BD9F70E94270D10
:1034A00095CF0E94270D10921A08109219081092B9
:1034B0001C0810921B0810921D08F09217087092B9
:1034C000180886E00E94E603892B59F480912803AE
:1034D00018160CF053C083300CF052C0815080930A
:1034E000280387E00E94E603892B59F48091280382
:1034F0008F3F0CF447C018160CF446C08F5F8093C2
:10350000280310921A081092190810921C081092A1
:103510001B0810921D088FE694E00E94100C809109
:10352000280328E0829FC001112410921A081092EB
:10353000190890931C0880931B0810921D0889E3BA
:1035400092E00E94920D0E94CA0884E00E94E60365
:10355000892B31F4809128038823C1F08130E1F078
:1035600085E00E94E603892B09F0ABCF0E94270D6E
:1035700085E00E94E603892BD9F790CF80E0AFCF9A
:1035800081E0ADCF80E0BBCF81E0B9CF60E08FEFCD
:1035900093E00E94701BE4CF61E0F9CF0E94270DF9
:1035A00010921A081092190810921C0810921B0809
:1035B00010921D088BE392E00E94970D8CE592E03B
:1035C0000E94970D409106045091070460910804F1
:1035D0007091090422E08AE094E00E94AA0D61E55E
:1035E00071E08AE094E00E94370D83E892E00E9447
:1035F000970D0E94530C4B015C012AE0BC01A40111
:10360000B7FE0DC06DE28AE094E00E94A80944274D
:103610005527BA01481959096A097B092AE08AE045
:1036200094E00E94460D61E571E08AE094E00E941A
:10363000370D8BE992E00E94920D40912E0350913C
:103640002F03609130037091310322E08AE094E00F
:103650000E94AA0D8FEA92E00E94970D81E892E005
:103660000E94970D86E994E00E94100C0E94CA08FF
:1036700085E00E94E603892BD9F710CF0E94270D21
:1036800010921A081092190810921C0810921B0828
:1036900010921D08E09215088EEB94E00E94100C29
:1036A00061E571E08AE094E00E94370D1092150800
:1036B00081E892E00E94970D8AEA94E00E94100C43
:1036C0000E94CA0885E00E94E603892BD9F7E6CE5E
:1036D000F999FECF92BD81BDF89A992780B50895DA
:1036E000262FF999FECF1FBA92BD81BD20BD0FB61E
:1036F000F894FA9AF99A0FBE01960895052E97FB51
:103700001EF400940E94951B57FD07D00E94A81B31
:1037100007FC03D04EF40C94951B509540953095C2
:1037200021953F4F4F4F5F4F08959095809570952D
:1037300061957F4F8F4F9F4F08950E94CA1BA59F91
:10374000900DB49F900DA49F800D911D112408959C
:10375000A1E21A2EAA1BBB1BFD010DC0AA1FBB1F95
:10376000EE1FFF1FA217B307E407F50720F0A21B07
:10377000B30BE40BF50B661F771F881F991F1A9474
:1037800069F760957095809590959B01AC01BD019E
:10379000CF010895A29FB001B39FC001A39F700DF8
:1037A000811D1124911DB29F700D811D1124911D49
:1037B00008955058BB27AA270E94F11B0C946B1D3B
:1037C0000E945D1D38F00E94641D20F039F49F3F77
:1037D00019F426F40C945A1D0EF4E095E7FB0C94B2
:1037E000541DE92F0E947C1D58F3BA176207730716
:1037F0008407950720F079F4A6F50C949E1D0EF42D
:10380000E0950B2EBA2FA02D0B01B90190010C01F0
:10381000CA01A0011124FF27591B99F0593F50F408
:10382000503E68F11A16F040A22F232F342F442760
:10383000585FF3CF469537952795A795F040539558
:10384000C9F77EF41F16BA0B620B730B840BBAF028
:103850009150A1F0FF0FBB1F661F771F881FC2F793
:103860000EC0BA0F621F731F841F48F487957795A7
:103870006795B795F7959E3F08F0B0CF9395880F61
:1038800008F09927EE0F9795879508950E94301DAF
:1038900008F481E008950E945F1C0C946B1D0E9447
:1038A000641D58F00E945D1D40F029F45F3F29F02F
:1038B0000C94541D51110C949F1D0C945A1D0E9480
:1038C0007C1D68F39923B1F3552391F3951B550B98
:1038D000BB27AA2762177307840738F09F5F5F4FE3
:1038E000220F331F441FAA1FA9F335D00E2E3AF022
:1038F000E0E832D091505040E695001CCAF72BD03A
:10390000FE2F29D0660F771F881FBB1F261737078A
:103910004807AB07B0E809F0BB0B802DBF01FF27BC
:1039200093585F4F3AF09E3F510578F00C94541D28
:103930000C949F1D5F3FE4F3983ED4F386957795F2
:103940006795B795F7959F5FC9F7880F911D969575
:10395000879597F90895E1E0660F771F881FBB1FD1
:10396000621773078407BA0720F0621B730B840B7E
:10397000BA0BEE1F88F7E09508950E94C41C689466
:10398000B1110C949F1D08950E94841D88F09F57CB
:1039900098F0B92F9927B751B0F0E1F0660F771F73
:1039A000881F991F1AF0BA95C9F714C0B13091F069
:1039B0000E949E1DB1E008950C949E1D672F782FE4
:1039C0008827B85F39F0B93FCCF38695779567952E
:1039D000B395D9F73EF490958095709561957F4F9A
:1039E0008F4F9F4F0895E89409C097FB3EF4909540
:1039F0008095709561957F4F8F4F9F4F9923A9F0C8
:103A0000F92F96E9BB279395F69587957795679556
:103A1000B795F111F8CFFAF4BB0F11F460FF1BC09A
:103A20006F5F7F4F8F4F9F4F16C0882311F096E92D
:103A300011C0772321F09EE8872F762F05C06623DB
:103A400071F096E8862F70E060E02AF09A95660F94
:103A5000771F881FDAF7880F9695879597F908954D
:103A6000990F0008550FAA0BE0E8FEEF161617068F
:103A7000E807F907C0F012161306E407F50798F0F7
:103A8000621B730B840B950B39F40A2661F0232B10
:103A9000242B252B21F408950A2609F4A140A6958C
:103AA0008FEF811D811D089597F99F6780E870E071
:103AB00060E008959FEF80EC089500240A941616A4
:103AC000170618060906089500240A94121613060C
:103AD000140605060895092E0394000C11F488239A
:103AE00052F0BB0F40F4BF2B11F460FF04C06F5FB6
:103AF0007F4F8F4F9F4F089557FD9058440F551F8C
:103B000059F05F3F71F04795880F97FB991F61F05F
:103B10009F3F79F087950895121613061406551FD6
:103B2000F2CF4695F1DF08C0161617061806991F42
:103B3000F1CF86957105610508940895E894BB2737
:103B400066277727CB0197F908950E94301D08F466
:103B50008FEF08950E94BD1D0C946B1D0E945D1D8A
:103B600038F00E94641D20F0952311F00C94541D30
:103B70000C945A1D11240C949F1D0E947C1D70F3FF
:103B8000959FC1F3950F50E0551F629FF001729F02
:103B9000BB27F00DB11D639FAA27F00DB11DAA1F11
:103BA000649F6627B00DA11D661F829F2227B00D5E
:103BB000A11D621F739FB00DA11D621F839FA00DE9
:103BC000611D221F749F3327A00D611D231F849F39
:103BD000600D211D822F762F6A2F11249F57504090
:103BE0009AF0F1F088234AF0EE0FFF1FBB1F661F0B
:103BF000771F881F91505040A9F79E3F510580F0D4
:103C00000C94541D0C949F1D5F3FE4F3983ED4F335
:103C1000869577956795B795F795E7959F5FC1F777
:103C2000FE2B880F911D9695879597F908950E9410
:103C3000301D880B990B0895DB018F939F930E9491
:103C40009D1BBF91AF91A29F800D911DA39F900DD1
:103C5000B29F900D11240895EE0FFF1F0590F4916F
:103C6000E02D09940F931F93CF93DF93823091053A
:103C700010F482E090E0E0912E08F0912F0830E0FF
:103C800020E0B0E0A0E0309799F42115310509F467
:103C90004AC0281B390B24303105D8F58A819B8115
:103CA0006115710589F1FB0193838283FE0111C0C7
:103CB000408151810281138148175907E0F048176C
:103CC000590799F4109761F012960C931297139676
:103CD0001C933296CF01DF91CF911F910F910895E0
:103CE00000932E0810932F08F4CF2115310551F0C1
:103CF0004217530738F0A901DB019A01BD01DF012A
:103D0000F801C1CFEF01F9CF90932F0880932E08CF
:103D1000CDCFFE01E20FF31F819391932250310921
:103D200039832883D7CF20912C0830912D08232B5D
:103D300041F420910E0130910F0130932D08209312
:103D40002C0820910C0130910D012115310541F411
:103D50002DB73EB74091100150911101241B350B36
:103D6000E0912C08F0912D08E217F307A0F42E1B28
:103D70003F0B2817390778F0AC014E5F5F4F2417CF
:103D8000350748F04E0F5F1F50932D0840932C08C5
:103D9000819391939FCFF0E0E0E09CCFCF93DF93AE
:103DA0000097E9F0FC01329713821282A0912E084D
:103DB000B0912F08ED0130E020E01097A1F42081B0
:103DC0003181820F931F20912C0830912D082817E4
:103DD000390709F061C0F0932D08E0932C08DF91BA
:103DE000CF910895EA01CE17DF07E8F54A815B819C
:103DF0009E0141155105B1F7E901FB83EA83499121
:103E00005991C40FD51FEC17FD0761F48081918192
:103E10000296840F951FE90199838883828193819B
:103E20009B838A83F0E0E0E012968D919C9113973A
:103E30000097B9F52D913C911197CD010296820F13
:103E4000931F20912C0830912D082817390739F637
:103E5000309751F510922F0810922E08B0932D082C
:103E6000A0932C08BCCFD383C28340815181840F9F
:103E7000951FC817D90761F44E5F5F4F88819981FC
:103E8000480F591F518340838A819B81938382838A
:103E90002115310509F0B0CFF0932F08E0932E08DB
:103EA0009ECFFD01DC01C0CF13821282D7CFDC018F
:103EB00001C06D9341505040E0F70895F894FFCF52
:103EC000FFFFFFFF00E100000000000000003008DD
:103ED000800000C1808100000000000000170692F1
:103EE0000538062D067E063C065A06000000003CFA
:103EF000080F082C0CE5070808F507E60700000086
:103F0000006B08D00E00000000A80965052C0C2BE2
:103F10000C0D0A006E616E00696E66006F766600B9
:103F200054454E534F4D4554455200617879616C6C
:103F30004079616E6465782E727500D098D0BDD0DE
:103F4000B8D186D0B8D0B0D0BBD0B8D0B7D0B0D16F
:103F500086D0B8D18F00D0B1D0B0D182D0B0D180CE
:103F6000D0B5D18F00D180D0B0D0B7D180D18FD093
:103F7000B6D0B5D0BDD0B0006B67003E303C004C31
:103F80004F57004E4F524D004849474800302E30A1
:103F900030004E003E2030203C00484F4C4400D0C2
:103FA00098D0B7D0BCD0B5D0BDD0B5D0BDD0B8D0EA
:103FB000B520D0BDD0B0D181D182D180D0BED0B516
:103FC000D0BA20D0B220D0B4D0B0D0BDD0BDD18B2B
:103FD000D0B920D0BCD0BED0BCD0B5D0BDD182200D
:103FE000D0BDD0B520D182D180D0B5D0B1D183D0D1
:103FF000B5D182D181D18F2E003E00D09ED0B1D1DB
:1040000089D0B0D18F20D0B8D0BDD184D0BED180DE
:10401000D0BCD0B0D186D0B8D18F3A00D09AD0B031
:10402000D0BBD0B8D0B1D180D0BED0B2D0BED187B5
:10403000D0BDD18BD0B920D0BAD0BED18DD1842EF5
:104040003A2000D090D0A6D09F20D0B4D0B0D1825A
:10405000D187D0B8D0BAD0B03A2000D097D0B0D164
:1040600080D18FD0B420D090D09AD0913A20002522
:0240700000004E
:1070000055C000006EC000006CC000006AC00000E7
:1070100068C0000066C0000064C0000062C00000DC
:1070200060C000005EC00000FCC400005AC0000048
:1070300058C0000056C0000054C0000052C00000FC
:1070400050C000005DC000004CC000004AC00000FD
:1070500048C0000046C0000044C0000042C000001C
:1070600040C000003EC000003CC000003AC000002C
:1070700038C0000036C0000034C0000032C000003C
:1070800030C000002EC000002CC000002AC000004C
:1070900028C0000026C0000024C0000022C000005C
:1070A00020C000001EC000001CC0000011241FBE34
:1070B000CFEFDAE0DEBFCDBF11E0A0E0B1E0E6E463
:1070C000FFE702C005900D92A43BB107D9F711E08C
:1070D000A4EBB1E001C01D92AD3CB107E1F74FD385
:1070E00030C78ECFF89410926F001092810081E02B
:1070F00085BF15BE47985D9A289A0C9400000895A4
:107100001F920F920FB60F9211242F938F939F937C
:10711000EF93FF9310928500109284008091B40148
:107120009091B501009741F001979093B50180933C
:10713000B401892B09F45D9A8091B6019091B70151
:10714000009741F001979093B7018093B601892B86
:1071500009F4289A8091BA019091BB01019690930D
:10716000BB018093BA01E0E0F0E0859194918F5FDC
:107170009F4F49F08091B8019091B9010196909389
:10718000B9018093B801FF91EF919F918F912F9159
:107190000F900FBE0F901F90189584E08093E90028
:1071A0000DC08091E8008B778093E80003C08EB318
:1071B000882351F08091E80082FFF9CF8091E800A8
:1071C00085FFEFCF8091F1000895982F83E08093A1
:1071D000E9008091E80085FD0DC08091E8008E7780
:1071E0008093E80003C08EB3882369F08091E800A3
:1071F00080FFF9CF9093F1005D9884E690E0909342
:10720000B5018093B40108954F925F926F927F927F
:107210008F929F92AF92BF92CF92DF92EF92FF92A6
:107220000F931F93CF93DF9384E08093E9008091C5
:10723000E80082FF57C2289884E690E09093B70157
:107240008093B601AADF182F853481F48CE49DE188
:107250009093B9018093B80107B600FCFDCFF9996E
:10726000FECF81E180935700E89503C0843519F47F
:1072700094DF8DE00DC28C34E1F38035D1F3843797
:1072800021F484E4A2DF80E003C2813611F489E5B1
:10729000FFC18134B1F481DF182F7FDF90E0880FC8
:1072A000991FAA2797FDA095BA2F312F330F20E001
:1072B000442737FD4095542F822B932BA42BB52BBD
:1072C000B8C1803711F483E5E3C1833549F4C0E0E8
:1072D000D1E089917ADF21E0C730D207D1F7D9C157
:1072E000863521F481E371DF80E3D2C1833731F445
:1072F00087E86BDF85E969DF8EE1CAC18536B9F4BD
:10730000E0E0F0E093E085E090935700E89507B661
:1073100000FCFDCF80935700E89507B600FCFDCF39
:10732000E058FF4FA0E7E030FA0771F7A2CF8237AD
:1073300039F4E1E0F0E089E0809357008491A8C13E
:10734000863439F4E0E0F0E089E0809357008491DE
:107350009FC18E3439F4E3E0F0E089E08093570078
:10736000849196C1813539F4E2E0F0E089E08093C0
:10737000570084918DC1823631F489E526DF80E0A3
:1073800024DF80E885C1823419F0873609F0E5C032
:107390001092B9011092B80100DF082FFEDEF82E1E
:1073A000FCDE682E8554823008F071C1902F80E099
:1073B000CF2DD0E0C82BD92B10926F00173609F0D3
:1073C0004BC081E180935700E895DD24CC24C39421
:1073D0003FC0E090BD01F090BE010091BF0110914F
:1073E000C001B6E46B16D9F4ED2DF0E0EE29FF29CB
:1073F000E4918E2FEADEDD2081F082E090E0A0E0D3
:10740000B0E0E80EF91E0A1F1B1FE092BD01F092CA
:10741000BE010093BF011093C001DC2418C0D80145
:10742000C701B695A7959795879575D5CEDE82E06D
:1074300090E0A0E0B0E0E80EF91E0A1F1B1FE092EA
:10744000BD01F092BE010093BF011093C0012197CE
:10745000209709F0BECF7DC08090BD019090BE0105
:10746000A090BF01B090C00196E4691609F05DC01C
:1074700083E0F40180935700E89507B600FCFDCF48
:1074800054C0F6E46F1661F5772031F1E090BD014C
:10749000F090BE010091BF011091C0017EDED82E98
:1074A000CC24852D90E08C299D29F7010C01409278
:1074B0005700E895112482E090E0A0E0B0E0E80EEB
:1074C000F91E0A1F1B1FE092BD01F092BE0100933E
:1074D000BF011093C00102C060DE582E742423C087
:1074E000E090BD01F090BE010091BF011091C0017C
:1074F00016950795F794E79450DE682FC70113D5CA
:107500008091BD019091BE01A091BF01B091C001D9
:107510000296A11DB11D8093BD019093BE01A09361
:10752000BF01B093C001219704C05524772444249F
:107530004394209709F0A5CF96E4691641F485E0BD
:10754000F40180935700E89507B600FCFDCF8DE06D
:107550003CDE82E080936F009CC0833471F4009124
:10756000BD011091BE0119DE90E021E0F8010C018F
:1075700020935700E89511247CCE833619F5E090CE
:10758000BD01F090BE010091BF011091C00105DE68
:10759000F701E16090E021E00C0120935700E895AD
:1075A000112482E090E0A0E0B0E0E80EF91E0A1F8E
:1075B0001B1FE092BD01F092BE010093BF0110932A
:1075C000C00157CE8D3661F4E091BD01F091BE014E
:1075D00085E080935700E89507B600FCFDCF49CEC3
:1075E000823551F4E091BD01F091BE0105911491F5
:1075F000812FEBDD802F4CC0843421F5E090BD015C
:10760000F090BE010091BF011091C0011695079541
:10761000F794E794C2DD682FC70185D48091BD013E
:107620009091BE01A091BF01B091C0010296A11D31
:10763000B11D8093BD019093BE01A093BF01B09393
:10764000C00117CE843609F5E090BD01F090BE016F
:107650000091BF011091C001D801C701B695A7954F
:107660009795879558D4B1DD82E090E0A0E0B0E036
:10767000E80EF91E0A1F1B1FE092BD01F092BE0129
:107680000093BF011093C00104C08B3111F08FE350
:107690009CDD83E08093E9009091E8008091E80010
:1076A0008E778093E80095FF04C010C08EB38823C6
:1076B000C9F08091E80080FFF9CF8091E8008E77D3
:1076C0008093E80003C08EB3882361F08091E800C6
:1076D00080FFF9CF84E08093E9008091E8008B7708
:1076E0008093E800DF91CF911F910F91FF90EF9071
:1076F000DF90CF90BF90AF909F908F907F906F90D2
:107700005F904F9008959091C501892F8F778132B6
:1077100049F58091C6018032A1F0813219F5913A84
:1077200009F58091E800877F8093E8008CE091E084
:1077300067E070E027D28091E8008B778093E800C3
:107740000895913279F48091E800877F8093E80072
:107750008CE091E067E070E079D28091E8008E776C
:107760008093E800089582E061EC42E0D1D083E0AC
:1077700061E842E1CDD084E060E842E1C9C01F93F6
:10778000209100081092000844B714BE88E10FB69B
:10779000F89480936000109260000FBE80E8E0E0F3
:1077A000F0E00FB6F89480936100E09361000FBEA3
:1077B00031E035BF92E095BF3F9A209A559A809369
:1077C00061001092610047985D9A289A1092890092
:1077D0008AEF8093880090936F0083E0809381000C
:1077E000859194918F5F9F4F11F03093BC01942F3E
:1077F00041FF19C0809109012817A9F08093000862
:10780000789480911301882339F08091BA01909186
:10781000BB018F5E9240C8F3F8941092000881E09B
:10782000809313010CC090FF04C08091BC01882399
:1078300051F493FF09C080910901281729F0809124
:10784000BC01882309F04EDCD4D078941092B901A1
:107850001092B8011EEF20C0D7DC4BD38091B80145
:107860009091B90181549F4110F0109213018091C1
:10787000C1019091C20101969093C2018093C10110
:10788000292F97FF03C0512F591B252F220F28178F
:1078900010F4479801C0479A809113018823E1F6BC
:1078A0008091E00081608093E0001CDC80E090E04B
:1078B0001F910895FA01923049F0933061F09130B0
:1078C000F9F484E191E022E130E01EC086E291E02B
:1078D0002EE330E019C0882329F484E691E024E007
:1078E00030E012C0813029F488E691E02EE130E0EA
:1078F0000BC0823029F488E891E02AE230E004C02D
:1079000080E090E020E030E091838083C901089519
:107910008093E9008091EB0081608093EB001092EE
:10792000ED006093EC004093ED008091EE00881F25
:107930008827881F08958091C50188238CF403C08F
:107940008EB38823B1F08091E80082FFF9CF809157
:10795000E8008B778093E80008958EB3882349F080
:107960008091E80080FFF9CF8091E8008E778093C6
:10797000E8000895EF92FF920F931F9345D04CD0EB
:1079800008ED10E0F80180818F7780838081806826
:10799000808380818F7D808319BC1EBA1092C301C1
:1079A00080EEE82EF12CF70180818B7F8083F80137
:1079B00080818160808380E060E042E0A9DFE1EEC9
:1079C000F0E080818E7F8083E2EEF0E08081816054
:1079D0008083808188608083F70180818E7F8083AF
:1079E000F8018081806180831F910F91FF90EF905B
:1079F0000895E7EDF0E08081816080838AE482BFB2
:107A000081E08093C401B6CFE8EDF0E080818E7F05
:107A100080831092E20008951092DA001092E10043
:107A200008951F920F920FB60F9211242F933F9338
:107A30004F935F936F937F938F939F93AF93BF9376
:107A4000EF93FF938091DA0080FF1BC08091D800F4
:107A500080FF17C08091DA008E7F8093DA008091DA
:107A6000D90080FF0BC080E189BD82E189BD09B4E6
:107A700000FEFDCF81E08EBB3BD203C019BC1EBA15
:107A800037D28091E10080FF17C08091E20080FF33
:107A900013C08091E2008E7F8093E2008091E2002B
:107AA00080618093E2008091D80080628093D8004A
:107AB00019BC85E08EBB1CD28091E10084FF2CC0F4
:107AC0008091E20084FF28C080E189BD82E189BD08
:107AD00009B400FEFDCF8091D8008F7D8093D8003F
:107AE0008091E1008F7E8093E1008091E2008F7EA3
:107AF0008093E2008091E20081608093E2008091B7
:107B0000C301882331F48091E30087FD02C081E046
:107B100001C084E08EBBECD18091E10083FF21C0E5
:107B20008091E20083FF1DC08091E100877F8093F8
:107B3000E10082E08EBB1092C3018091E1008E7F54
:107B40008093E1008091E2008E7F8093E20080913B
:107B5000E20080618093E20080E060E042E0D8DEF5
:107B6000C7D1FF91EF91BF91AF919F918F917F917D
:107B70006F915F914F913F912F910F900FBE0F909A
:107B80001F9018959C014091CB015091CC01461754
:107B9000570718F4F90190E044C06115710511F020
:107BA000AB01F8CF8091E8008E778093E80040E049
:107BB00050E0F0CF8EB3882309F444C0853009F437
:107BC00043C08091E80083FF02C081E00895809166
:107BD000E80082FD31C08091E80080FF22C08091E2
:107BE000F3009091F200782F60E0292F30E0262BEF
:107BF000372B07C081918093F100415050402F5F97
:107C00003F4F4115510519F02830310598F390E0A8
:107C10002830310509F491E08091E8008E77809357
:107C2000E8004115510531F6992321F605C08EB3C0
:107C3000882341F0853041F08091E80082FFF7CF42
:107C400080E0089582E0089583E008959C01611525
:107C5000710529F48091E8008B778093E800F901A1
:107C600026C08EB3882391F1853091F18091E80090
:107C700083FF02C081E008958091E80082FFF1CF88
:107C800006C08091F10081936150704059F02091BD
:107C9000F3008091F200322F20E090E0822B932BB2
:107CA000892B79F78091E8008B778093E800611544
:107CB0007105B9F605C08EB3882341F0853041F0D7
:107CC0008091E80080FFF7CF80E0089582E008957A
:107CD00083E008950F931F93DF93CF9300D0CDB728
:107CE000DEB7E5ECF1E08091F100819381E0ED3CBD
:107CF000F807C9F708DD8091E80083FFE4C08091B0
:107D0000C5019091C601953009F46DC0963040F4DC
:107D1000913081F1913070F0933009F0D4C02AC0D5
:107D2000983009F4A3C0993009F4B2C0963009F034
:107D3000CAC07CC0803809F4C6C0823809F0C3C00C
:107D40008091C90187708093E9008091EB001092C7
:107D5000E9002091E800277F2093E80090E025E0EB
:107D6000969587952A95E1F781708093F10010929E
:107D7000F10087C0882319F0823009F0A4C08F7108
:107D8000823009F0A0C08091C701882331F520918D
:107D9000C901277009F497C02093E9008091EB0096
:107DA00080FF1BC0933021F48091EB00806213C0F0
:107DB0008091EB0080618093EB0081E090E002C055
:107DC000880F991F2A95E2F78093EA001092EA0043
:107DD0008091EB0088608093EB001092E900809125
:107DE000E800877F51C0882309F06DC01091C7015A
:107DF0001F770FB7F8948091E800877F8093E800A1
:107E00009ADD8091E80080FFFCCF8091E3008078CC
:107E1000812B8093E30080688093E300112311F4A9
:107E200082E001C083E08EBB0FBF4DC0805882301E
:107E300008F049C08091C7019091C8016091C901C3
:107E4000AE014F5F5F4F36DDBC01009709F43BC0C8
:107E50008091E800877F8093E80089819A8192DE93
:107E60008091E8008B778093E8002DC0803859F529
:107E70008091E800877F8093E8008091C301809320
:107E8000F1008091E8008E778093E80054DD1BC0FC
:107E90008823C9F49091C7019230A8F48091E8003A
:107EA000877F8093E8009093C30145DD8091C301F3
:107EB000882331F48091E30087FD02C081E001C096
:107EC00084E08EBB50DC8091E80083FF0AC0809183
:107ED000EB0080628093EB008091E800877F8093C5
:107EE000E8000F900F90CF91DF911F910F910895AF
:107EF00008951F938EB3882361F01091E9001092CA
:107F0000E9008091E80083FF01C0E4DE1770109360
:107F1000E9001F910895F999FECF92BD81BDF89AAD
:107F2000992780B50895262FF999FECF1FBA92BDE3
:107F300081BD20BD0FB6F894FA9AF99A0FBE01964A
:107F40000895F894FFCF4341544552494E4100777C
:107F500000080000000000000801120110010200EA
:107F600000084F1B059201000201000109023E00BA
:107F70000201008032090400000102020100052410
:107F800000100104240204052406000107058203F1
:107F90000800FF09040100020A00000007050402AE
:107FA00010000107058302100001040309041E03E9
:107FB000500072006F0020004D00690063007200E5
:107FC0006F002000350056002000200000002A032A
:107FD00053007000610072006B00460075006E0077
:107FE000200045006C0065006300740072006F00A3
:0A7FF0006E006900630073000000DA
:00000001FF
